{
  "contractName": "RideHailingApp",
  "abi": [
    {
      "inputs": [],
      "stateMutability": "nonpayable",
      "type": "constructor"
    },
    {
      "inputs": [],
      "name": "accountsContract",
      "outputs": [
        {
          "internalType": "contract RideHailingAccountManagement",
          "name": "",
          "type": "address"
        }
      ],
      "stateMutability": "view",
      "type": "function"
    },
    {
      "inputs": [],
      "name": "driverContract",
      "outputs": [
        {
          "internalType": "contract RideHailingDriver",
          "name": "",
          "type": "address"
        }
      ],
      "stateMutability": "view",
      "type": "function"
    },
    {
      "inputs": [],
      "name": "passengerContract",
      "outputs": [
        {
          "internalType": "contract RideHailingPassenger",
          "name": "",
          "type": "address"
        }
      ],
      "stateMutability": "view",
      "type": "function"
    }
  ],
  "bytecode": "0x608060405234801561001057600080fd5b5060405161001d906106bb565b604051809103906000f080158015610039573d6000803e3d6000fd5b50600360006101000a81548173ffffffffffffffffffffffffffffffffffffffff021916908373ffffffffffffffffffffffffffffffffffffffff160217905550604051610086906106c9565b604051809103906000f0801580156100a2573d6000803e3d6000fd5b50600460006101000a81548173ffffffffffffffffffffffffffffffffffffffff021916908373ffffffffffffffffffffffffffffffffffffffff1602179055506040516100ef906106d7565b604051809103906000f08015801561010b573d6000803e3d6000fd5b50600560006101000a81548173ffffffffffffffffffffffffffffffffffffffff021916908373ffffffffffffffffffffffffffffffffffffffff160217905550604051610158906106e5565b604051809103906000f080158015610174573d6000803e3d6000fd5b50600660006101000a81548173ffffffffffffffffffffffffffffffffffffffff021916908373ffffffffffffffffffffffffffffffffffffffff160217905550600360009054906101000a900473ffffffffffffffffffffffffffffffffffffffff166040516101e4906106f3565b6101ee919061078e565b604051809103906000f08015801561020a573d6000803e3d6000fd5b506000806101000a81548173ffffffffffffffffffffffffffffffffffffffff021916908373ffffffffffffffffffffffffffffffffffffffff160217905550600360009054906101000a900473ffffffffffffffffffffffffffffffffffffffff16600560009054906101000a900473ffffffffffffffffffffffffffffffffffffffff1660405161029c90610701565b6102a79291906107ca565b604051809103906000f0801580156102c3573d6000803e3d6000fd5b50600160006101000a81548173ffffffffffffffffffffffffffffffffffffffff021916908373ffffffffffffffffffffffffffffffffffffffff1602179055506000600467ffffffffffffffff811115610321576103206107f3565b5b60405190808252806020026020018201604052801561034f5781602001602082028036833780820191505090505b509050308160008151811061036757610366610822565b5b602002602001019073ffffffffffffffffffffffffffffffffffffffff16908173ffffffffffffffffffffffffffffffffffffffff168152505060008054906101000a900473ffffffffffffffffffffffffffffffffffffffff16816001815181106103d6576103d5610822565b5b602002602001019073ffffffffffffffffffffffffffffffffffffffff16908173ffffffffffffffffffffffffffffffffffffffff1681525050600160009054906101000a900473ffffffffffffffffffffffffffffffffffffffff168160028151811061044757610446610822565b5b602002602001019073ffffffffffffffffffffffffffffffffffffffff16908173ffffffffffffffffffffffffffffffffffffffff1681525050600360009054906101000a900473ffffffffffffffffffffffffffffffffffffffff1673ffffffffffffffffffffffffffffffffffffffff1663f3071471826040518263ffffffff1660e01b81526004016104dc9190610921565b600060405180830381600087803b1580156104f657600080fd5b505af115801561050a573d6000803e3d6000fd5b50505050600460009054906101000a900473ffffffffffffffffffffffffffffffffffffffff1673ffffffffffffffffffffffffffffffffffffffff1663f3071471826040518263ffffffff1660e01b81526004016105699190610921565b600060405180830381600087803b15801561058357600080fd5b505af1158015610597573d6000803e3d6000fd5b50505050600560009054906101000a900473ffffffffffffffffffffffffffffffffffffffff1673ffffffffffffffffffffffffffffffffffffffff1663f3071471826040518263ffffffff1660e01b81526004016105f69190610921565b600060405180830381600087803b15801561061057600080fd5b505af1158015610624573d6000803e3d6000fd5b50505050600660009054906101000a900473ffffffffffffffffffffffffffffffffffffffff1673ffffffffffffffffffffffffffffffffffffffff1663f3071471826040518263ffffffff1660e01b81526004016106839190610921565b600060405180830381600087803b15801561069d57600080fd5b505af11580156106b1573d6000803e3d6000fd5b5050505050610943565b6114478062000bab83390190565b610c0a8062001ff283390190565b612ef78062002bfc83390190565b610bcf8062005af383390190565b610a7e80620066c283390190565b611a5c806200714083390190565b600073ffffffffffffffffffffffffffffffffffffffff82169050919050565b6000819050919050565b600061075461074f61074a8461070f565b61072f565b61070f565b9050919050565b600061076682610739565b9050919050565b60006107788261075b565b9050919050565b6107888161076d565b82525050565b60006020820190506107a3600083018461077f565b92915050565b60006107b48261075b565b9050919050565b6107c4816107a9565b82525050565b60006040820190506107df600083018561077f565b6107ec60208301846107bb565b9392505050565b7f4e487b7100000000000000000000000000000000000000000000000000000000600052604160045260246000fd5b7f4e487b7100000000000000000000000000000000000000000000000000000000600052603260045260246000fd5b600081519050919050565b600082825260208201905092915050565b6000819050602082019050919050565b60006108888261070f565b9050919050565b6108988161087d565b82525050565b60006108aa838361088f565b60208301905092915050565b6000602082019050919050565b60006108ce82610851565b6108d8818561085c565b93506108e38361086d565b8060005b838110156109145781516108fb888261089e565b9750610906836108b6565b9250506001810190506108e7565b5085935050505092915050565b6000602082019050818103600083015261093b81846108c3565b905092915050565b61025880620009536000396000f3fe608060405234801561001057600080fd5b50600436106100415760003560e01c8063446f201e146100465780637b384f08146100645780639ca217d714610082575b600080fd5b61004e6100a0565b60405161005b919061018f565b60405180910390f35b61006c6100c4565b60405161007991906101cb565b60405180910390f35b61008a6100ea565b6040516100979190610207565b60405180910390f35b60008054906101000a900473ffffffffffffffffffffffffffffffffffffffff1681565b600260009054906101000a900473ffffffffffffffffffffffffffffffffffffffff1681565b600160009054906101000a900473ffffffffffffffffffffffffffffffffffffffff1681565b600073ffffffffffffffffffffffffffffffffffffffff82169050919050565b6000819050919050565b600061015561015061014b84610110565b610130565b610110565b9050919050565b60006101678261013a565b9050919050565b60006101798261015c565b9050919050565b6101898161016e565b82525050565b60006020820190506101a46000830184610180565b92915050565b60006101b58261015c565b9050919050565b6101c5816101aa565b82525050565b60006020820190506101e060008301846101bc565b92915050565b60006101f18261015c565b9050919050565b610201816101e6565b82525050565b600060208201905061021c60008301846101f8565b9291505056fea26469706673582212208fbf914d6eccfe4e3c74b5404e2c4cc5b103c1f35289b37d2349fc9279fd1c2964736f6c634300081100336080604052336000806101000a81548173ffffffffffffffffffffffffffffffffffffffff021916908373ffffffffffffffffffffffffffffffffffffffff16021790555034801561005057600080fd5b506113e7806100606000396000f3fe608060405234801561001057600080fd5b50600436106100885760003560e01c806375cd51ed1161005b57806375cd51ed1461011357806393423e9c14610143578063ccb570e314610173578063f30714711461018f57610088565b80631ea30fef1461008d5780632b8bbbe8146100ab5780633003d242146100c757806340433653146100e3575b600080fd5b6100956101ab565b6040516100a29190610ac9565b60405180910390f35b6100c560048036038101906100c09190610b78565b6101b6565b005b6100e160048036038101906100dc9190610c1d565b6102f0565b005b6100fd60048036038101906100f89190610c91565b61050e565b60405161010a9190610cd9565b60405180910390f35b61012d60048036038101906101289190610c91565b610645565b60405161013a9190610cd9565b60405180910390f35b61015d60048036038101906101589190610c91565b610691565b60405161016a9190610ac9565b60405180910390f35b61018d60048036038101906101889190610cf4565b6107be565b005b6101a960048036038101906101a49190610d9d565b61094f565b005b66470de4df82000081565b6000805b60018054905081101561025457600181815481106101db576101da610dea565b5b9060005260206000200160009054906101000a900473ffffffffffffffffffffffffffffffffffffffff1673ffffffffffffffffffffffffffffffffffffffff163373ffffffffffffffffffffffffffffffffffffffff16036102415760019150610254565b808061024c90610e48565b9150506101ba565b5080610295576040517f08c379a000000000000000000000000000000000000000000000000000000000815260040161028c90610f13565b60405180910390fd5b82600360008473ffffffffffffffffffffffffffffffffffffffff1673ffffffffffffffffffffffffffffffffffffffff16815260200190815260200160002060008282546102e49190610f33565b92505081905550505050565b6000805b60018054905081101561038e576001818154811061031557610314610dea565b5b9060005260206000200160009054906101000a900473ffffffffffffffffffffffffffffffffffffffff1673ffffffffffffffffffffffffffffffffffffffff163373ffffffffffffffffffffffffffffffffffffffff160361037b576001915061038e565b808061038690610e48565b9150506102f4565b50806103cf576040517f08c379a00000000000000000000000000000000000000000000000000000000081526004016103c690610f13565b60405180910390fd5b6103d885610645565b15610418576040517f08c379a000000000000000000000000000000000000000000000000000000000815260040161040f90610fb3565b60405180910390fd5b81600360008773ffffffffffffffffffffffffffffffffffffffff1673ffffffffffffffffffffffffffffffffffffffff16815260200190815260200160002081905550604051806020016040528085858080601f016020809104026020016040519081016040528093929190818152602001838380828437600081840152601f19601f82011690508083019250505050505050815250600260008773ffffffffffffffffffffffffffffffffffffffff1673ffffffffffffffffffffffffffffffffffffffff16815260200190815260200160002060008201518160000190816105039190611219565b509050505050505050565b6000806000905060005b6001805490508110156105b2576001818154811061053957610538610dea565b5b9060005260206000200160009054906101000a900473ffffffffffffffffffffffffffffffffffffffff1673ffffffffffffffffffffffffffffffffffffffff163373ffffffffffffffffffffffffffffffffffffffff160361059f57600191506105b2565b80806105aa90610e48565b915050610518565b50806105f3576040517f08c379a00000000000000000000000000000000000000000000000000000000081526004016105ea90610f13565b60405180910390fd5b66470de4df820000600360008573ffffffffffffffffffffffffffffffffffffffff1673ffffffffffffffffffffffffffffffffffffffff168152602001908152602001600020541015915050919050565b600080600360008473ffffffffffffffffffffffffffffffffffffffff1673ffffffffffffffffffffffffffffffffffffffff1681526020019081526020016000205414159050919050565b6000806000905060005b60018054905081101561073557600181815481106106bc576106bb610dea565b5b9060005260206000200160009054906101000a900473ffffffffffffffffffffffffffffffffffffffff1673ffffffffffffffffffffffffffffffffffffffff163373ffffffffffffffffffffffffffffffffffffffff16036107225760019150610735565b808061072d90610e48565b91505061069b565b5080610776576040517f08c379a000000000000000000000000000000000000000000000000000000000815260040161076d90610f13565b60405180910390fd5b600360008473ffffffffffffffffffffffffffffffffffffffff1673ffffffffffffffffffffffffffffffffffffffff16815260200190815260200160002054915050919050565b6000805b60018054905081101561085c57600181815481106107e3576107e2610dea565b5b9060005260206000200160009054906101000a900473ffffffffffffffffffffffffffffffffffffffff1673ffffffffffffffffffffffffffffffffffffffff163373ffffffffffffffffffffffffffffffffffffffff1603610849576001915061085c565b808061085490610e48565b9150506107c2565b508061089d576040517f08c379a000000000000000000000000000000000000000000000000000000000815260040161089490610f13565b60405180910390fd5b83600360008573ffffffffffffffffffffffffffffffffffffffff1673ffffffffffffffffffffffffffffffffffffffff16815260200190815260200160002060008282546108ec91906112eb565b9250508190555083600360008473ffffffffffffffffffffffffffffffffffffffff1673ffffffffffffffffffffffffffffffffffffffff16815260200190815260200160002060008282546109429190610f33565b9250508190555050505050565b60008054906101000a900473ffffffffffffffffffffffffffffffffffffffff1673ffffffffffffffffffffffffffffffffffffffff163373ffffffffffffffffffffffffffffffffffffffff16146109dd576040517f08c379a00000000000000000000000000000000000000000000000000000000081526004016109d490611391565b60405180910390fd5b8181600191906109ee9291906109f3565b505050565b828054828255906000526020600020908101928215610a82579160200282015b82811115610a8157823573ffffffffffffffffffffffffffffffffffffffff168260006101000a81548173ffffffffffffffffffffffffffffffffffffffff021916908373ffffffffffffffffffffffffffffffffffffffff16021790555091602001919060010190610a13565b5b509050610a8f9190610a93565b5090565b5b80821115610aac576000816000905550600101610a94565b5090565b6000819050919050565b610ac381610ab0565b82525050565b6000602082019050610ade6000830184610aba565b92915050565b600080fd5b600080fd5b610af781610ab0565b8114610b0257600080fd5b50565b600081359050610b1481610aee565b92915050565b600073ffffffffffffffffffffffffffffffffffffffff82169050919050565b6000610b4582610b1a565b9050919050565b610b5581610b3a565b8114610b6057600080fd5b50565b600081359050610b7281610b4c565b92915050565b60008060408385031215610b8f57610b8e610ae4565b5b6000610b9d85828601610b05565b9250506020610bae85828601610b63565b9150509250929050565b600080fd5b600080fd5b600080fd5b60008083601f840112610bdd57610bdc610bb8565b5b8235905067ffffffffffffffff811115610bfa57610bf9610bbd565b5b602083019150836001820283011115610c1657610c15610bc2565b5b9250929050565b60008060008060608587031215610c3757610c36610ae4565b5b6000610c4587828801610b63565b945050602085013567ffffffffffffffff811115610c6657610c65610ae9565b5b610c7287828801610bc7565b93509350506040610c8587828801610b05565b91505092959194509250565b600060208284031215610ca757610ca6610ae4565b5b6000610cb584828501610b63565b91505092915050565b60008115159050919050565b610cd381610cbe565b82525050565b6000602082019050610cee6000830184610cca565b92915050565b600080600060608486031215610d0d57610d0c610ae4565b5b6000610d1b86828701610b05565b9350506020610d2c86828701610b63565b9250506040610d3d86828701610b63565b9150509250925092565b60008083601f840112610d5d57610d5c610bb8565b5b8235905067ffffffffffffffff811115610d7a57610d79610bbd565b5b602083019150836020820283011115610d9657610d95610bc2565b5b9250929050565b60008060208385031215610db457610db3610ae4565b5b600083013567ffffffffffffffff811115610dd257610dd1610ae9565b5b610dde85828601610d47565b92509250509250929050565b7f4e487b7100000000000000000000000000000000000000000000000000000000600052603260045260246000fd5b7f4e487b7100000000000000000000000000000000000000000000000000000000600052601160045260246000fd5b6000610e5382610ab0565b91507fffffffffffffffffffffffffffffffffffffffffffffffffffffffffffffffff8203610e8557610e84610e19565b5b600182019050919050565b600082825260208201905092915050565b7f43616e206f6e6c792062652063616c6c65642066726f6d20696e7465726e616c60008201527f20636f6e74726163747300000000000000000000000000000000000000000000602082015250565b6000610efd602a83610e90565b9150610f0882610ea1565b604082019050919050565b60006020820190508181036000830152610f2c81610ef0565b9050919050565b6000610f3e82610ab0565b9150610f4983610ab0565b9250828201905080821115610f6157610f60610e19565b5b92915050565b7f4163636f756e7420616c72656164792065786973747300000000000000000000600082015250565b6000610f9d601683610e90565b9150610fa882610f67565b602082019050919050565b60006020820190508181036000830152610fcc81610f90565b9050919050565b600081519050919050565b7f4e487b7100000000000000000000000000000000000000000000000000000000600052604160045260246000fd5b7f4e487b7100000000000000000000000000000000000000000000000000000000600052602260045260246000fd5b6000600282049050600182168061105457607f821691505b6020821081036110675761106661100d565b5b50919050565b60008190508160005260206000209050919050565b60006020601f8301049050919050565b600082821b905092915050565b6000600883026110cf7fffffffffffffffffffffffffffffffffffffffffffffffffffffffffffffffff82611092565b6110d98683611092565b95508019841693508086168417925050509392505050565b6000819050919050565b600061111661111161110c84610ab0565b6110f1565b610ab0565b9050919050565b6000819050919050565b611130836110fb565b61114461113c8261111d565b84845461109f565b825550505050565b600090565b61115961114c565b611164818484611127565b505050565b5b818110156111885761117d600082611151565b60018101905061116a565b5050565b601f8211156111cd5761119e8161106d565b6111a784611082565b810160208510156111b6578190505b6111ca6111c285611082565b830182611169565b50505b505050565b600082821c905092915050565b60006111f0600019846008026111d2565b1980831691505092915050565b600061120983836111df565b9150826002028217905092915050565b61122282610fd3565b67ffffffffffffffff81111561123b5761123a610fde565b5b611245825461103c565b61125082828561118c565b600060209050601f8311600181146112835760008415611271578287015190505b61127b85826111fd565b8655506112e3565b601f1984166112918661106d565b60005b828110156112b957848901518255600182019150602085019450602081019050611294565b868310156112d657848901516112d2601f8916826111df565b8355505b6001600288020188555050505b505050505050565b60006112f682610ab0565b915061130183610ab0565b925082820390508181111561131957611318610e19565b5b92915050565b7f43616e206f6e6c792062652063616c6c65642066726f6d206f776e657220636f60008201527f6e74726163740000000000000000000000000000000000000000000000000000602082015250565b600061137b602683610e90565b91506113868261131f565b604082019050919050565b600060208201905081810360008301526113aa8161136e565b905091905056fea2646970667358221220167ef62f0a3866ba747e3ef462e8fa9e05177cc9e3d1bbfeb39cb017d7b23b5664736f6c634300081100336080604052336000806101000a81548173ffffffffffffffffffffffffffffffffffffffff021916908373ffffffffffffffffffffffffffffffffffffffff16021790555034801561005057600080fd5b50610baa806100606000396000f3fe608060405234801561001057600080fd5b50600436106100365760003560e01c8063c77670f51461003b578063f30714711461006b575b600080fd5b61005560048036038101906100509190610536565b610087565b60405161006291906105c3565b60405180910390f35b61008560048036038101906100809190610634565b610308565b005b6000806000905060005b60018054905081101561012b57600181815481106100b2576100b1610681565b5b9060005260206000200160009054906101000a900473ffffffffffffffffffffffffffffffffffffffff1673ffffffffffffffffffffffffffffffffffffffff163373ffffffffffffffffffffffffffffffffffffffff1603610118576001915061012b565b8080610123906106df565b915050610091565b508061016c576040517f08c379a0000000000000000000000000000000000000000000000000000000008152600401610163906107aa565b60405180910390fd5b60006002805490509050600260405180608001604052808973ffffffffffffffffffffffffffffffffffffffff1681526020018873ffffffffffffffffffffffffffffffffffffffff16815260200187878080601f016020809104026020016040519081016040528093929190818152602001838380828437600081840152601f19601f82011690508083019250505050505050815260200160001515815250908060018154018082558091505060019003906000526020600020906004020160009091909190915060008201518160000160006101000a81548173ffffffffffffffffffffffffffffffffffffffff021916908373ffffffffffffffffffffffffffffffffffffffff16021790555060208201518160010160006101000a81548173ffffffffffffffffffffffffffffffffffffffff021916908373ffffffffffffffffffffffffffffffffffffffff16021790555060408201518160020190816102d89190610a10565b5060608201518160030160006101000a81548160ff02191690831515021790555050508092505050949350505050565b60008054906101000a900473ffffffffffffffffffffffffffffffffffffffff1673ffffffffffffffffffffffffffffffffffffffff163373ffffffffffffffffffffffffffffffffffffffff1614610396576040517f08c379a000000000000000000000000000000000000000000000000000000000815260040161038d90610b54565b60405180910390fd5b8181600191906103a79291906103ac565b505050565b82805482825590600052602060002090810192821561043b579160200282015b8281111561043a57823573ffffffffffffffffffffffffffffffffffffffff168260006101000a81548173ffffffffffffffffffffffffffffffffffffffff021916908373ffffffffffffffffffffffffffffffffffffffff160217905550916020019190600101906103cc565b5b509050610448919061044c565b5090565b5b8082111561046557600081600090555060010161044d565b5090565b600080fd5b600080fd5b600073ffffffffffffffffffffffffffffffffffffffff82169050919050565b600061049e82610473565b9050919050565b6104ae81610493565b81146104b957600080fd5b50565b6000813590506104cb816104a5565b92915050565b600080fd5b600080fd5b600080fd5b60008083601f8401126104f6576104f56104d1565b5b8235905067ffffffffffffffff811115610513576105126104d6565b5b60208301915083600182028301111561052f5761052e6104db565b5b9250929050565b600080600080606085870312156105505761054f610469565b5b600061055e878288016104bc565b945050602061056f878288016104bc565b935050604085013567ffffffffffffffff8111156105905761058f61046e565b5b61059c878288016104e0565b925092505092959194509250565b6000819050919050565b6105bd816105aa565b82525050565b60006020820190506105d860008301846105b4565b92915050565b60008083601f8401126105f4576105f36104d1565b5b8235905067ffffffffffffffff811115610611576106106104d6565b5b60208301915083602082028301111561062d5761062c6104db565b5b9250929050565b6000806020838503121561064b5761064a610469565b5b600083013567ffffffffffffffff8111156106695761066861046e565b5b610675858286016105de565b92509250509250929050565b7f4e487b7100000000000000000000000000000000000000000000000000000000600052603260045260246000fd5b7f4e487b7100000000000000000000000000000000000000000000000000000000600052601160045260246000fd5b60006106ea826105aa565b91507fffffffffffffffffffffffffffffffffffffffffffffffffffffffffffffffff820361071c5761071b6106b0565b5b600182019050919050565b600082825260208201905092915050565b7f43616e206f6e6c792062652063616c6c65642066726f6d20696e7465726e616c60008201527f20636f6e74726163747300000000000000000000000000000000000000000000602082015250565b6000610794602a83610727565b915061079f82610738565b604082019050919050565b600060208201905081810360008301526107c381610787565b9050919050565b600081519050919050565b7f4e487b7100000000000000000000000000000000000000000000000000000000600052604160045260246000fd5b7f4e487b7100000000000000000000000000000000000000000000000000000000600052602260045260246000fd5b6000600282049050600182168061084b57607f821691505b60208210810361085e5761085d610804565b5b50919050565b60008190508160005260206000209050919050565b60006020601f8301049050919050565b600082821b905092915050565b6000600883026108c67fffffffffffffffffffffffffffffffffffffffffffffffffffffffffffffffff82610889565b6108d08683610889565b95508019841693508086168417925050509392505050565b6000819050919050565b600061090d610908610903846105aa565b6108e8565b6105aa565b9050919050565b6000819050919050565b610927836108f2565b61093b61093382610914565b848454610896565b825550505050565b600090565b610950610943565b61095b81848461091e565b505050565b5b8181101561097f57610974600082610948565b600181019050610961565b5050565b601f8211156109c45761099581610864565b61099e84610879565b810160208510156109ad578190505b6109c16109b985610879565b830182610960565b50505b505050565b600082821c905092915050565b60006109e7600019846008026109c9565b1980831691505092915050565b6000610a0083836109d6565b9150826002028217905092915050565b610a19826107ca565b67ffffffffffffffff811115610a3257610a316107d5565b5b610a3c8254610833565b610a47828285610983565b600060209050601f831160018114610a7a5760008415610a68578287015190505b610a7285826109f4565b865550610ada565b601f198416610a8886610864565b60005b82811015610ab057848901518255600182019150602085019450602081019050610a8b565b86831015610acd5784890151610ac9601f8916826109d6565b8355505b6001600288020188555050505b505050505050565b7f43616e206f6e6c792062652063616c6c65642066726f6d206f776e657220636f60008201527f6e74726163740000000000000000000000000000000000000000000000000000602082015250565b6000610b3e602683610727565b9150610b4982610ae2565b604082019050919050565b60006020820190508181036000830152610b6d81610b31565b905091905056fea26469706673582212207d89832de2b519426c44fbf2b7bb5e27175f9ee06008dc3e7ab20d28c1d6702464736f6c634300081100336080604052336000806101000a81548173ffffffffffffffffffffffffffffffffffffffff021916908373ffffffffffffffffffffffffffffffffffffffff160217905550600060025534801561005557600080fd5b50612e92806100656000396000f3fe608060405234801561001057600080fd5b50600436106100a95760003560e01c80633d0fd023116100715780633d0fd023146101505780633efcf6ec14610180578063946a1aaa1461019c578063b14157ab146101cc578063be9b82e0146101e8578063f307147114610206576100a9565b806314ac2c99146100ae5780632290b191146100cc57806323f425f1146100fc57806326535816146101185780632e2f1a5b14610134575b600080fd5b6100b6610222565b6040516100c39190611ecd565b60405180910390f35b6100e660048036038101906100e19190611f2f565b61044d565b6040516100f39190611f6b565b60405180910390f35b61011660048036038101906101119190611fb2565b6105b7565b005b610132600480360381019061012d9190612057565b6107de565b005b61014e60048036038101906101499190611fb2565b610a1c565b005b61016a60048036038101906101659190612113565b610c87565b60405161017791906121c9565b60405180910390f35b61019a60048036038101906101959190611fb2565b611001565b005b6101b660048036038101906101b19190611f2f565b611202565b6040516101c391906121c9565b60405180910390f35b6101e660048036038101906101e19190611fb2565b61134c565b005b6101f06115f2565b6040516101fd9190611ecd565b60405180910390f35b610220600480360381019061021b919061223a565b611a3d565b005b60606000805b6001805490508110156102c2576001818154811061024957610248612287565b5b9060005260206000200160009054906101000a900473ffffffffffffffffffffffffffffffffffffffff1673ffffffffffffffffffffffffffffffffffffffff163373ffffffffffffffffffffffffffffffffffffffff16036102af57600191506102c2565b80806102ba906122e5565b915050610228565b5080610303576040517f08c379a00000000000000000000000000000000000000000000000000000000081526004016102fa906123b0565b60405180910390fd5b60003073ffffffffffffffffffffffffffffffffffffffff1663be9b82e06040518163ffffffff1660e01b8152600401600060405180830381865afa158015610350573d6000803e3d6000fd5b505050506040513d6000823e3d601f19601f820116820180604052508101906103799190612760565b90506000815160021161038d576002610390565b81515b90506000600a67ffffffffffffffff8111156103af576103ae6123d0565b5b6040519080825280602002602001820160405280156103e857816020015b6103d5611ae1565b8152602001906001900390816103cd5790505b50905060005b828110156104425783818151811061040957610408612287565b5b602002602001015182828151811061042457610423612287565b5b6020026020010181905250808061043a906122e5565b9150506103ee565b508094505050505090565b6000806000905060005b6001805490508110156104f1576001818154811061047857610477612287565b5b9060005260206000200160009054906101000a900473ffffffffffffffffffffffffffffffffffffffff1673ffffffffffffffffffffffffffffffffffffffff163373ffffffffffffffffffffffffffffffffffffffff16036104de57600191506104f1565b80806104e9906122e5565b915050610457565b5080610532576040517f08c379a0000000000000000000000000000000000000000000000000000000008152600401610529906123b0565b60405180910390fd5b826002548110610577576040517f08c379a000000000000000000000000000000000000000000000000000000000815260040161056e906127f5565b60405180910390fd5b6003600085815260200190815260200160002060020160009054906101000a900473ffffffffffffffffffffffffffffffffffffffff1692505050919050565b6000805b60018054905081101561065557600181815481106105dc576105db612287565b5b9060005260206000200160009054906101000a900473ffffffffffffffffffffffffffffffffffffffff1673ffffffffffffffffffffffffffffffffffffffff163373ffffffffffffffffffffffffffffffffffffffff16036106425760019150610655565b808061064d906122e5565b9150506105bb565b5080610696576040517f08c379a000000000000000000000000000000000000000000000000000000000815260040161068d906123b0565b60405180910390fd5b8260025481106106db576040517f08c379a00000000000000000000000000000000000000000000000000000000081526004016106d2906127f5565b60405180910390fd5b83838073ffffffffffffffffffffffffffffffffffffffff166003600084815260200190815260200160002060020160009054906101000a900473ffffffffffffffffffffffffffffffffffffffff1673ffffffffffffffffffffffffffffffffffffffff1614610781576040517f08c379a000000000000000000000000000000000000000000000000000000000815260040161077890612861565b60405180910390fd5b846003600088815260200190815260200160002060020160006101000a81548173ffffffffffffffffffffffffffffffffffffffff021916908373ffffffffffffffffffffffffffffffffffffffff160217905550505050505050565b6000805b60018054905081101561087c576001818154811061080357610802612287565b5b9060005260206000200160009054906101000a900473ffffffffffffffffffffffffffffffffffffffff1673ffffffffffffffffffffffffffffffffffffffff163373ffffffffffffffffffffffffffffffffffffffff1603610869576001915061087c565b8080610874906122e5565b9150506107e2565b50806108bd576040517f08c379a00000000000000000000000000000000000000000000000000000000081526004016108b4906123b0565b60405180910390fd5b876002548110610902576040517f08c379a00000000000000000000000000000000000000000000000000000000081526004016108f9906127f5565b60405180910390fd5b88888073ffffffffffffffffffffffffffffffffffffffff166003600084815260200190815260200160002060010160009054906101000a900473ffffffffffffffffffffffffffffffffffffffff1673ffffffffffffffffffffffffffffffffffffffff16146109a8576040517f08c379a000000000000000000000000000000000000000000000000000000000815260040161099f906128cd565b60405180910390fd5b8888600360008e815260200190815260200160002060030191826109cd929190612b04565b508686600360008e815260200190815260200160002060040191826109f3929190612b04565b5084600360008d8152602001908152602001600020600501819055505050505050505050505050565b6000805b600180549050811015610aba5760018181548110610a4157610a40612287565b5b9060005260206000200160009054906101000a900473ffffffffffffffffffffffffffffffffffffffff1673ffffffffffffffffffffffffffffffffffffffff163373ffffffffffffffffffffffffffffffffffffffff1603610aa75760019150610aba565b8080610ab2906122e5565b915050610a20565b5080610afb576040517f08c379a0000000000000000000000000000000000000000000000000000000008152600401610af2906123b0565b60405180910390fd5b826002548110610b40576040517f08c379a0000000000000000000000000000000000000000000000000000000008152600401610b37906127f5565b60405180910390fd5b83838073ffffffffffffffffffffffffffffffffffffffff166003600084815260200190815260200160002060010160009054906101000a900473ffffffffffffffffffffffffffffffffffffffff1673ffffffffffffffffffffffffffffffffffffffff1614610be6576040517f08c379a0000000000000000000000000000000000000000000000000000000008152600401610bdd906128cd565b60405180910390fd5b600115156003600088815260200190815260200160002060060160019054906101000a900460ff16151514610c50576040517f08c379a0000000000000000000000000000000000000000000000000000000008152600401610c4790612c46565b60405180910390fd5b60016003600088815260200190815260200160002060060160006101000a81548160ff021916908315150217905550505050505050565b6000806000905060005b600180549050811015610d2b5760018181548110610cb257610cb1612287565b5b9060005260206000200160009054906101000a900473ffffffffffffffffffffffffffffffffffffffff1673ffffffffffffffffffffffffffffffffffffffff163373ffffffffffffffffffffffffffffffffffffffff1603610d185760019150610d2b565b8080610d23906122e5565b915050610c91565b5080610d6c576040517f08c379a0000000000000000000000000000000000000000000000000000000008152600401610d63906123b0565b60405180910390fd5b60405180610140016040528060025481526020018973ffffffffffffffffffffffffffffffffffffffff168152602001600073ffffffffffffffffffffffffffffffffffffffff16815260200188888080601f016020809104026020016040519081016040528093929190818152602001838380828437600081840152601f19601f82011690508083019250505050505050815260200186868080601f016020809104026020016040519081016040528093929190818152602001838380828437600081840152601f19601f820116905080830192505050505050508152602001848152602001600015158152602001600015158152602001600015158152602001600015158152506003600060025481526020019081526020016000206000820151816000015560208201518160010160006101000a81548173ffffffffffffffffffffffffffffffffffffffff021916908373ffffffffffffffffffffffffffffffffffffffff16021790555060408201518160020160006101000a81548173ffffffffffffffffffffffffffffffffffffffff021916908373ffffffffffffffffffffffffffffffffffffffff1602179055506060820151816003019081610f379190612c66565b506080820151816004019081610f4d9190612c66565b5060a0820151816005015560c08201518160060160006101000a81548160ff02191690831515021790555060e08201518160060160016101000a81548160ff0219169083151502179055506101008201518160060160026101000a81548160ff0219169083151502179055506101208201518160060160036101000a81548160ff02191690831515021790555090505060026000815480929190610ff0906122e5565b919050559150509695505050505050565b6000805b60018054905081101561109f576001818154811061102657611025612287565b5b9060005260206000200160009054906101000a900473ffffffffffffffffffffffffffffffffffffffff1673ffffffffffffffffffffffffffffffffffffffff163373ffffffffffffffffffffffffffffffffffffffff160361108c576001915061109f565b8080611097906122e5565b915050611005565b50806110e0576040517f08c379a00000000000000000000000000000000000000000000000000000000081526004016110d7906123b0565b60405180910390fd5b826002548110611125576040517f08c379a000000000000000000000000000000000000000000000000000000000815260040161111c906127f5565b60405180910390fd5b83838073ffffffffffffffffffffffffffffffffffffffff166003600084815260200190815260200160002060020160009054906101000a900473ffffffffffffffffffffffffffffffffffffffff1673ffffffffffffffffffffffffffffffffffffffff16146111cb576040517f08c379a00000000000000000000000000000000000000000000000000000000081526004016111c290612861565b60405180910390fd5b60016003600088815260200190815260200160002060060160016101000a81548160ff021916908315150217905550505050505050565b6000806000905060005b6001805490508110156112a6576001818154811061122d5761122c612287565b5b9060005260206000200160009054906101000a900473ffffffffffffffffffffffffffffffffffffffff1673ffffffffffffffffffffffffffffffffffffffff163373ffffffffffffffffffffffffffffffffffffffff160361129357600191506112a6565b808061129e906122e5565b91505061120c565b50806112e7576040517f08c379a00000000000000000000000000000000000000000000000000000000081526004016112de906123b0565b60405180910390fd5b82600254811061132c576040517f08c379a0000000000000000000000000000000000000000000000000000000008152600401611323906127f5565b60405180910390fd5b600360008581526020019081526020016000206005015492505050919050565b6000805b6001805490508110156113ea576001818154811061137157611370612287565b5b9060005260206000200160009054906101000a900473ffffffffffffffffffffffffffffffffffffffff1673ffffffffffffffffffffffffffffffffffffffff163373ffffffffffffffffffffffffffffffffffffffff16036113d757600191506113ea565b80806113e2906122e5565b915050611350565b508061142b576040517f08c379a0000000000000000000000000000000000000000000000000000000008152600401611422906123b0565b60405180910390fd5b826002548110611470576040517f08c379a0000000000000000000000000000000000000000000000000000000008152600401611467906127f5565b60405180910390fd5b83838073ffffffffffffffffffffffffffffffffffffffff166003600084815260200190815260200160002060010160009054906101000a900473ffffffffffffffffffffffffffffffffffffffff1673ffffffffffffffffffffffffffffffffffffffff1614611516576040517f08c379a000000000000000000000000000000000000000000000000000000000815260040161150d906128cd565b60405180910390fd5b600073ffffffffffffffffffffffffffffffffffffffff166003600088815260200190815260200160002060020160009054906101000a900473ffffffffffffffffffffffffffffffffffffffff1673ffffffffffffffffffffffffffffffffffffffff16036115bb576040517f08c379a00000000000000000000000000000000000000000000000000000000081526004016115b290612daa565b60405180910390fd5b60016003600088815260200190815260200160002060060160036101000a81548160ff021916908315150217905550505050505050565b60606000805b600180549050811015611692576001818154811061161957611618612287565b5b9060005260206000200160009054906101000a900473ffffffffffffffffffffffffffffffffffffffff1673ffffffffffffffffffffffffffffffffffffffff163373ffffffffffffffffffffffffffffffffffffffff160361167f5760019150611692565b808061168a906122e5565b9150506115f8565b50806116d3576040517f08c379a00000000000000000000000000000000000000000000000000000000081526004016116ca906123b0565b60405180910390fd5b600060025467ffffffffffffffff8111156116f1576116f06123d0565b5b60405190808252806020026020018201604052801561172a57816020015b611717611ae1565b81526020019060019003908161170f5790505b5090506000805b600254811015611a33576003600082815260200190815260200160002060060160009054906101000a900460ff1615801561178d57506003600082815260200190815260200160002060060160019054906101000a900460ff16155b15611a20576003600082815260200190815260200160002060405180610140016040529081600082015481526020016001820160009054906101000a900473ffffffffffffffffffffffffffffffffffffffff1673ffffffffffffffffffffffffffffffffffffffff1673ffffffffffffffffffffffffffffffffffffffff1681526020016002820160009054906101000a900473ffffffffffffffffffffffffffffffffffffffff1673ffffffffffffffffffffffffffffffffffffffff1673ffffffffffffffffffffffffffffffffffffffff16815260200160038201805461187790612927565b80601f01602080910402602001604051908101604052809291908181526020018280546118a390612927565b80156118f05780601f106118c5576101008083540402835291602001916118f0565b820191906000526020600020905b8154815290600101906020018083116118d357829003601f168201915b5050505050815260200160048201805461190990612927565b80601f016020809104026020016040519081016040528092919081815260200182805461193590612927565b80156119825780601f1061195757610100808354040283529160200191611982565b820191906000526020600020905b81548152906001019060200180831161196557829003601f168201915b50505050508152602001600582015481526020016006820160009054906101000a900460ff161515151581526020016006820160019054906101000a900460ff161515151581526020016006820160029054906101000a900460ff161515151581526020016006820160039054906101000a900460ff161515151581525050838381518110611a1457611a13612287565b5b60200260200101819052505b8080611a2b906122e5565b915050611731565b5081935050505090565b60008054906101000a900473ffffffffffffffffffffffffffffffffffffffff1673ffffffffffffffffffffffffffffffffffffffff163373ffffffffffffffffffffffffffffffffffffffff1614611acb576040517f08c379a0000000000000000000000000000000000000000000000000000000008152600401611ac290612e3c565b60405180910390fd5b818160019190611adc929190611b68565b505050565b60405180610140016040528060008152602001600073ffffffffffffffffffffffffffffffffffffffff168152602001600073ffffffffffffffffffffffffffffffffffffffff1681526020016060815260200160608152602001600081526020016000151581526020016000151581526020016000151581526020016000151581525090565b828054828255906000526020600020908101928215611bf7579160200282015b82811115611bf657823573ffffffffffffffffffffffffffffffffffffffff168260006101000a81548173ffffffffffffffffffffffffffffffffffffffff021916908373ffffffffffffffffffffffffffffffffffffffff16021790555091602001919060010190611b88565b5b509050611c049190611c08565b5090565b5b80821115611c21576000816000905550600101611c09565b5090565b600081519050919050565b600082825260208201905092915050565b6000819050602082019050919050565b6000819050919050565b611c6481611c51565b82525050565b600073ffffffffffffffffffffffffffffffffffffffff82169050919050565b6000611c9582611c6a565b9050919050565b611ca581611c8a565b82525050565b600081519050919050565b600082825260208201905092915050565b60005b83811015611ce5578082015181840152602081019050611cca565b60008484015250505050565b6000601f19601f8301169050919050565b6000611d0d82611cab565b611d178185611cb6565b9350611d27818560208601611cc7565b611d3081611cf1565b840191505092915050565b60008115159050919050565b611d5081611d3b565b82525050565b600061014083016000830151611d6f6000860182611c5b565b506020830151611d826020860182611c9c565b506040830151611d956040860182611c9c565b5060608301518482036060860152611dad8282611d02565b91505060808301518482036080860152611dc78282611d02565b91505060a0830151611ddc60a0860182611c5b565b5060c0830151611def60c0860182611d47565b5060e0830151611e0260e0860182611d47565b50610100830151611e17610100860182611d47565b50610120830151611e2c610120860182611d47565b508091505092915050565b6000611e438383611d56565b905092915050565b6000602082019050919050565b6000611e6382611c25565b611e6d8185611c30565b935083602082028501611e7f85611c41565b8060005b85811015611ebb5784840389528151611e9c8582611e37565b9450611ea783611e4b565b925060208a01995050600181019050611e83565b50829750879550505050505092915050565b60006020820190508181036000830152611ee78184611e58565b905092915050565b6000604051905090565b600080fd5b600080fd5b611f0c81611c51565b8114611f1757600080fd5b50565b600081359050611f2981611f03565b92915050565b600060208284031215611f4557611f44611ef9565b5b6000611f5384828501611f1a565b91505092915050565b611f6581611c8a565b82525050565b6000602082019050611f806000830184611f5c565b92915050565b611f8f81611c8a565b8114611f9a57600080fd5b50565b600081359050611fac81611f86565b92915050565b60008060408385031215611fc957611fc8611ef9565b5b6000611fd785828601611f1a565b9250506020611fe885828601611f9d565b9150509250929050565b600080fd5b600080fd5b600080fd5b60008083601f84011261201757612016611ff2565b5b8235905067ffffffffffffffff81111561203457612033611ff7565b5b6020830191508360018202830111156120505761204f611ffc565b5b9250929050565b600080600080600080600060a0888a03121561207657612075611ef9565b5b60006120848a828b01611f1a565b97505060206120958a828b01611f9d565b965050604088013567ffffffffffffffff8111156120b6576120b5611efe565b5b6120c28a828b01612001565b9550955050606088013567ffffffffffffffff8111156120e5576120e4611efe565b5b6120f18a828b01612001565b935093505060806121048a828b01611f1a565b91505092959891949750929550565b600080600080600080608087890312156121305761212f611ef9565b5b600061213e89828a01611f9d565b965050602087013567ffffffffffffffff81111561215f5761215e611efe565b5b61216b89828a01612001565b9550955050604087013567ffffffffffffffff81111561218e5761218d611efe565b5b61219a89828a01612001565b935093505060606121ad89828a01611f1a565b9150509295509295509295565b6121c381611c51565b82525050565b60006020820190506121de60008301846121ba565b92915050565b60008083601f8401126121fa576121f9611ff2565b5b8235905067ffffffffffffffff81111561221757612216611ff7565b5b60208301915083602082028301111561223357612232611ffc565b5b9250929050565b6000806020838503121561225157612250611ef9565b5b600083013567ffffffffffffffff81111561226f5761226e611efe565b5b61227b858286016121e4565b92509250509250929050565b7f4e487b7100000000000000000000000000000000000000000000000000000000600052603260045260246000fd5b7f4e487b7100000000000000000000000000000000000000000000000000000000600052601160045260246000fd5b60006122f082611c51565b91507fffffffffffffffffffffffffffffffffffffffffffffffffffffffffffffffff8203612322576123216122b6565b5b600182019050919050565b600082825260208201905092915050565b7f43616e206f6e6c792062652063616c6c65642066726f6d20696e7465726e616c60008201527f20636f6e74726163747300000000000000000000000000000000000000000000602082015250565b600061239a602a8361232d565b91506123a58261233e565b604082019050919050565b600060208201905081810360008301526123c98161238d565b9050919050565b7f4e487b7100000000000000000000000000000000000000000000000000000000600052604160045260246000fd5b61240882611cf1565b810181811067ffffffffffffffff82111715612427576124266123d0565b5b80604052505050565b600061243a611eef565b905061244682826123ff565b919050565b600067ffffffffffffffff821115612466576124656123d0565b5b602082029050602081019050919050565b600080fd5b600080fd5b60008151905061249081611f03565b92915050565b6000815190506124a581611f86565b92915050565b600080fd5b600067ffffffffffffffff8211156124cb576124ca6123d0565b5b6124d482611cf1565b9050602081019050919050565b60006124f46124ef846124b0565b612430565b9050828152602081018484840111156125105761250f6124ab565b5b61251b848285611cc7565b509392505050565b600082601f83011261253857612537611ff2565b5b81516125488482602086016124e1565b91505092915050565b61255a81611d3b565b811461256557600080fd5b50565b60008151905061257781612551565b92915050565b6000610140828403121561259457612593612477565b5b61259f610140612430565b905060006125af84828501612481565b60008301525060206125c384828501612496565b60208301525060406125d784828501612496565b604083015250606082015167ffffffffffffffff8111156125fb576125fa61247c565b5b61260784828501612523565b606083015250608082015167ffffffffffffffff81111561262b5761262a61247c565b5b61263784828501612523565b60808301525060a061264b84828501612481565b60a08301525060c061265f84828501612568565b60c08301525060e061267384828501612568565b60e08301525061010061268884828501612568565b6101008301525061012061269e84828501612568565b6101208301525092915050565b60006126be6126b98461244b565b612430565b905080838252602082019050602084028301858111156126e1576126e0611ffc565b5b835b8181101561272857805167ffffffffffffffff81111561270657612705611ff2565b5b808601612713898261257d565b855260208501945050506020810190506126e3565b5050509392505050565b600082601f83011261274757612746611ff2565b5b81516127578482602086016126ab565b91505092915050565b60006020828403121561277657612775611ef9565b5b600082015167ffffffffffffffff81111561279457612793611efe565b5b6127a084828501612732565b91505092915050565b7f52696465496420697320696e76616c6964000000000000000000000000000000600082015250565b60006127df60118361232d565b91506127ea826127a9565b602082019050919050565b6000602082019050818103600083015261280e816127d2565b9050919050565b7f55736572206973206e6f74207468652064726976657200000000000000000000600082015250565b600061284b60168361232d565b915061285682612815565b602082019050919050565b6000602082019050818103600083015261287a8161283e565b9050919050565b7f55736572206973206e6f74207468652070617373656e67657200000000000000600082015250565b60006128b760198361232d565b91506128c282612881565b602082019050919050565b600060208201905081810360008301526128e6816128aa565b9050919050565b600082905092915050565b7f4e487b7100000000000000000000000000000000000000000000000000000000600052602260045260246000fd5b6000600282049050600182168061293f57607f821691505b602082108103612952576129516128f8565b5b50919050565b60008190508160005260206000209050919050565b60006020601f8301049050919050565b600082821b905092915050565b6000600883026129ba7fffffffffffffffffffffffffffffffffffffffffffffffffffffffffffffffff8261297d565b6129c4868361297d565b95508019841693508086168417925050509392505050565b6000819050919050565b6000612a016129fc6129f784611c51565b6129dc565b611c51565b9050919050565b6000819050919050565b612a1b836129e6565b612a2f612a2782612a08565b84845461298a565b825550505050565b600090565b612a44612a37565b612a4f818484612a12565b505050565b5b81811015612a7357612a68600082612a3c565b600181019050612a55565b5050565b601f821115612ab857612a8981612958565b612a928461296d565b81016020851015612aa1578190505b612ab5612aad8561296d565b830182612a54565b50505b505050565b600082821c905092915050565b6000612adb60001984600802612abd565b1980831691505092915050565b6000612af48383612aca565b9150826002028217905092915050565b612b0e83836128ed565b67ffffffffffffffff811115612b2757612b266123d0565b5b612b318254612927565b612b3c828285612a77565b6000601f831160018114612b6b5760008415612b59578287013590505b612b638582612ae8565b865550612bcb565b601f198416612b7986612958565b60005b82811015612ba157848901358255600182019150602085019450602081019050612b7c565b86831015612bbe5784890135612bba601f891682612aca565b8355505b6001600288020188555050505b50505050505050565b7f447269766572206d75737420636f6d706c65746520746865207269646520666960008201527f7273740000000000000000000000000000000000000000000000000000000000602082015250565b6000612c3060238361232d565b9150612c3b82612bd4565b604082019050919050565b60006020820190508181036000830152612c5f81612c23565b9050919050565b612c6f82611cab565b67ffffffffffffffff811115612c8857612c876123d0565b5b612c928254612927565b612c9d828285612a77565b600060209050601f831160018114612cd05760008415612cbe578287015190505b612cc88582612ae8565b865550612d30565b601f198416612cde86612958565b60005b82811015612d0657848901518255600182019150602085019450602081019050612ce1565b86831015612d235784890151612d1f601f891682612aca565b8355505b6001600288020188555050505b505050505050565b7f556e61626c6520746f20616363657074207269646520776974686f757420647260008201527f6976657200000000000000000000000000000000000000000000000000000000602082015250565b6000612d9460248361232d565b9150612d9f82612d38565b604082019050919050565b60006020820190508181036000830152612dc381612d87565b9050919050565b7f43616e206f6e6c792062652063616c6c65642066726f6d206f776e657220636f60008201527f6e74726163740000000000000000000000000000000000000000000000000000602082015250565b6000612e2660268361232d565b9150612e3182612dca565b604082019050919050565b60006020820190508181036000830152612e5581612e19565b905091905056fea26469706673582212204e88f81eeae118fc5a04aec1e2c30a560675cd71ce81349bb6e1a0be6be9630364736f6c634300081100336080604052336000806101000a81548173ffffffffffffffffffffffffffffffffffffffff021916908373ffffffffffffffffffffffffffffffffffffffff16021790555034801561005057600080fd5b50610b6f806100606000396000f3fe608060405234801561001057600080fd5b50600436106100365760003560e01c806359332ad51461003b578063f30714711461006b575b600080fd5b610055600480360381019061005091906104bb565b610087565b6040516100629190610588565b60405180910390f35b610085600480360381019061008091906105f9565b6102eb565b005b6000806000905060005b60018054905081101561012b57600181815481106100b2576100b1610646565b5b9060005260206000200160009054906101000a900473ffffffffffffffffffffffffffffffffffffffff1673ffffffffffffffffffffffffffffffffffffffff163373ffffffffffffffffffffffffffffffffffffffff1603610118576001915061012b565b8080610123906106a4565b915050610091565b508061016c576040517f08c379a00000000000000000000000000000000000000000000000000000000081526004016101639061076f565b60405180910390fd5b60006002805490509050600260405180608001604052808381526020018b8b8080601f016020809104026020016040519081016040528093929190818152602001838380828437600081840152601f19601f82011690508083019250505050505050815260200189898080601f016020809104026020016040519081016040528093929190818152602001838380828437600081840152601f19601f82011690508083019250505050505050815260200187878080601f016020809104026020016040519081016040528093929190818152602001838380828437600081840152601f19601f8201169050808301925050505050505081525090806001815401808255809150506001900390600052602060002090600402016000909190919091506000820151816000015560208201518160010190816102ad91906109d5565b5060408201518160020190816102c391906109d5565b5060608201518160030190816102d991906109d5565b50505080925050509695505050505050565b60008054906101000a900473ffffffffffffffffffffffffffffffffffffffff1673ffffffffffffffffffffffffffffffffffffffff163373ffffffffffffffffffffffffffffffffffffffff1614610379576040517f08c379a000000000000000000000000000000000000000000000000000000000815260040161037090610b19565b60405180910390fd5b81816001919061038a92919061038f565b505050565b82805482825590600052602060002090810192821561041e579160200282015b8281111561041d57823573ffffffffffffffffffffffffffffffffffffffff168260006101000a81548173ffffffffffffffffffffffffffffffffffffffff021916908373ffffffffffffffffffffffffffffffffffffffff160217905550916020019190600101906103af565b5b50905061042b919061042f565b5090565b5b80821115610448576000816000905550600101610430565b5090565b600080fd5b600080fd5b600080fd5b600080fd5b600080fd5b60008083601f84011261047b5761047a610456565b5b8235905067ffffffffffffffff8111156104985761049761045b565b5b6020830191508360018202830111156104b4576104b3610460565b5b9250929050565b600080600080600080606087890312156104d8576104d761044c565b5b600087013567ffffffffffffffff8111156104f6576104f5610451565b5b61050289828a01610465565b9650965050602087013567ffffffffffffffff81111561052557610524610451565b5b61053189828a01610465565b9450945050604087013567ffffffffffffffff81111561055457610553610451565b5b61056089828a01610465565b92509250509295509295509295565b6000819050919050565b6105828161056f565b82525050565b600060208201905061059d6000830184610579565b92915050565b60008083601f8401126105b9576105b8610456565b5b8235905067ffffffffffffffff8111156105d6576105d561045b565b5b6020830191508360208202830111156105f2576105f1610460565b5b9250929050565b600080602083850312156106105761060f61044c565b5b600083013567ffffffffffffffff81111561062e5761062d610451565b5b61063a858286016105a3565b92509250509250929050565b7f4e487b7100000000000000000000000000000000000000000000000000000000600052603260045260246000fd5b7f4e487b7100000000000000000000000000000000000000000000000000000000600052601160045260246000fd5b60006106af8261056f565b91507fffffffffffffffffffffffffffffffffffffffffffffffffffffffffffffffff82036106e1576106e0610675565b5b600182019050919050565b600082825260208201905092915050565b7f43616e206f6e6c792062652063616c6c65642066726f6d20696e7465726e616c60008201527f20636f6e74726163747300000000000000000000000000000000000000000000602082015250565b6000610759602a836106ec565b9150610764826106fd565b604082019050919050565b600060208201905081810360008301526107888161074c565b9050919050565b600081519050919050565b7f4e487b7100000000000000000000000000000000000000000000000000000000600052604160045260246000fd5b7f4e487b7100000000000000000000000000000000000000000000000000000000600052602260045260246000fd5b6000600282049050600182168061081057607f821691505b602082108103610823576108226107c9565b5b50919050565b60008190508160005260206000209050919050565b60006020601f8301049050919050565b600082821b905092915050565b60006008830261088b7fffffffffffffffffffffffffffffffffffffffffffffffffffffffffffffffff8261084e565b610895868361084e565b95508019841693508086168417925050509392505050565b6000819050919050565b60006108d26108cd6108c88461056f565b6108ad565b61056f565b9050919050565b6000819050919050565b6108ec836108b7565b6109006108f8826108d9565b84845461085b565b825550505050565b600090565b610915610908565b6109208184846108e3565b505050565b5b818110156109445761093960008261090d565b600181019050610926565b5050565b601f8211156109895761095a81610829565b6109638461083e565b81016020851015610972578190505b61098661097e8561083e565b830182610925565b50505b505050565b600082821c905092915050565b60006109ac6000198460080261098e565b1980831691505092915050565b60006109c5838361099b565b9150826002028217905092915050565b6109de8261078f565b67ffffffffffffffff8111156109f7576109f661079a565b5b610a0182546107f8565b610a0c828285610948565b600060209050601f831160018114610a3f5760008415610a2d578287015190505b610a3785826109b9565b865550610a9f565b601f198416610a4d86610829565b60005b82811015610a7557848901518255600182019150602085019450602081019050610a50565b86831015610a925784890151610a8e601f89168261099b565b8355505b6001600288020188555050505b505050505050565b7f43616e206f6e6c792062652063616c6c65642066726f6d206f776e657220636f60008201527f6e74726163740000000000000000000000000000000000000000000000000000602082015250565b6000610b036026836106ec565b9150610b0e82610aa7565b604082019050919050565b60006020820190508181036000830152610b3281610af6565b905091905056fea2646970667358221220992a67387ae1a81b94442835871aa43542baa61326e417e123a1e2ccfba1091764736f6c63430008110033608060405234801561001057600080fd5b50604051610a7e380380610a7e833981810160405281019061003291906100ed565b806000806101000a81548173ffffffffffffffffffffffffffffffffffffffff021916908373ffffffffffffffffffffffffffffffffffffffff1602179055505061011a565b600080fd5b600073ffffffffffffffffffffffffffffffffffffffff82169050919050565b60006100a88261007d565b9050919050565b60006100ba8261009d565b9050919050565b6100ca816100af565b81146100d557600080fd5b50565b6000815190506100e7816100c1565b92915050565b60006020828403121561010357610102610078565b5b6000610111848285016100d8565b91505092915050565b610955806101296000396000f3fe6080604052600436106100295760003560e01c8063298daf5b1461002e5780636896fabf1461004a575b600080fd5b61004860048036038101906100439190610587565b610075565b005b34801561005657600080fd5b5061005f6102b2565b60405161006c91906105e9565b60405180910390f35b60008054906101000a900473ffffffffffffffffffffffffffffffffffffffff1673ffffffffffffffffffffffffffffffffffffffff166375cd51ed336040518263ffffffff1660e01b81526004016100ce9190610645565b602060405180830381865afa1580156100eb573d6000803e3d6000fd5b505050506040513d601f19601f8201168201806040525081019061010f9190610698565b1561014f576040517f08c379a000000000000000000000000000000000000000000000000000000000815260040161014690610722565b60405180910390fd5b60008054906101000a900473ffffffffffffffffffffffffffffffffffffffff1673ffffffffffffffffffffffffffffffffffffffff16631ea30fef6040518163ffffffff1660e01b8152600401602060405180830381865afa1580156101ba573d6000803e3d6000fd5b505050506040513d601f19601f820116820180604052508101906101de919061076e565b341015610220576040517f08c379a0000000000000000000000000000000000000000000000000000000008152600401610217906107e7565b60405180910390fd5b60008054906101000a900473ffffffffffffffffffffffffffffffffffffffff1673ffffffffffffffffffffffffffffffffffffffff16633003d2423383346040518463ffffffff1660e01b815260040161027d93929190610875565b600060405180830381600087803b15801561029757600080fd5b505af11580156102ab573d6000803e3d6000fd5b5050505050565b60008060009054906101000a900473ffffffffffffffffffffffffffffffffffffffff1673ffffffffffffffffffffffffffffffffffffffff166375cd51ed336040518263ffffffff1660e01b815260040161030e9190610645565b602060405180830381865afa15801561032b573d6000803e3d6000fd5b505050506040513d601f19601f8201168201806040525081019061034f9190610698565b61038e576040517f08c379a0000000000000000000000000000000000000000000000000000000008152600401610385906108ff565b60405180910390fd5b60008054906101000a900473ffffffffffffffffffffffffffffffffffffffff1673ffffffffffffffffffffffffffffffffffffffff166393423e9c336040518263ffffffff1660e01b81526004016103e79190610645565b602060405180830381865afa158015610404573d6000803e3d6000fd5b505050506040513d601f19601f82011682018060405250810190610428919061076e565b905090565b6000604051905090565b600080fd5b600080fd5b600080fd5b600080fd5b6000601f19601f8301169050919050565b7f4e487b7100000000000000000000000000000000000000000000000000000000600052604160045260246000fd5b6104948261044b565b810181811067ffffffffffffffff821117156104b3576104b261045c565b5b80604052505050565b60006104c661042d565b90506104d2828261048b565b919050565b600067ffffffffffffffff8211156104f2576104f161045c565b5b6104fb8261044b565b9050602081019050919050565b82818337600083830152505050565b600061052a610525846104d7565b6104bc565b90508281526020810184848401111561054657610545610446565b5b610551848285610508565b509392505050565b600082601f83011261056e5761056d610441565b5b813561057e848260208601610517565b91505092915050565b60006020828403121561059d5761059c610437565b5b600082013567ffffffffffffffff8111156105bb576105ba61043c565b5b6105c784828501610559565b91505092915050565b6000819050919050565b6105e3816105d0565b82525050565b60006020820190506105fe60008301846105da565b92915050565b600073ffffffffffffffffffffffffffffffffffffffff82169050919050565b600061062f82610604565b9050919050565b61063f81610624565b82525050565b600060208201905061065a6000830184610636565b92915050565b60008115159050919050565b61067581610660565b811461068057600080fd5b50565b6000815190506106928161066c565b92915050565b6000602082840312156106ae576106ad610437565b5b60006106bc84828501610683565b91505092915050565b600082825260208201905092915050565b7f4163636f756e7420616c72656164792065786973747300000000000000000000600082015250565b600061070c6016836106c5565b9150610717826106d6565b602082019050919050565b6000602082019050818103600083015261073b816106ff565b9050919050565b61074b816105d0565b811461075657600080fd5b50565b60008151905061076881610742565b92915050565b60006020828403121561078457610783610437565b5b600061079284828501610759565b91505092915050565b7f4d696e696d756d206465706f73697420616d6f756e74206e6f74206d65740000600082015250565b60006107d1601e836106c5565b91506107dc8261079b565b602082019050919050565b60006020820190508181036000830152610800816107c4565b9050919050565b600081519050919050565b60005b83811015610830578082015181840152602081019050610815565b60008484015250505050565b600061084782610807565b61085181856106c5565b9350610861818560208601610812565b61086a8161044b565b840191505092915050565b600060608201905061088a6000830186610636565b818103602083015261089c818561083c565b90506108ab60408301846105da565b949350505050565b7f4163636f756e7420646f6573206e6f7420657869737400000000000000000000600082015250565b60006108e96016836106c5565b91506108f4826108b3565b602082019050919050565b60006020820190508181036000830152610918816108dc565b905091905056fea264697066735822122089532c831da7904240a42b4be5d082609dce8e7eed751b824aaa18b0deb002c864736f6c6343000811003360806040523480156200001157600080fd5b5060405162001a5c38038062001a5c833981810160405281019062000037919062000183565b816000806101000a81548173ffffffffffffffffffffffffffffffffffffffff021916908373ffffffffffffffffffffffffffffffffffffffff16021790555080600160006101000a81548173ffffffffffffffffffffffffffffffffffffffff021916908373ffffffffffffffffffffffffffffffffffffffff1602179055505050620001ca565b600080fd5b600073ffffffffffffffffffffffffffffffffffffffff82169050919050565b6000620000f282620000c5565b9050919050565b60006200010682620000e5565b9050919050565b6200011881620000f9565b81146200012457600080fd5b50565b60008151905062000138816200010d565b92915050565b60006200014b82620000e5565b9050919050565b6200015d816200013e565b81146200016957600080fd5b50565b6000815190506200017d8162000152565b92915050565b600080604083850312156200019d576200019c620000c0565b5b6000620001ad8582860162000127565b9250506020620001c0858286016200016c565b9150509250929050565b61188280620001da6000396000f3fe60806040526004361061003f5760003560e01c806311938562146100445780639bf9ae031461006d578063b2af40ee14610089578063c71d1fa3146100b2575b600080fd5b34801561005057600080fd5b5061006b60048036038101906100669190611083565b6100ce565b005b610087600480360381019061008291906111f6565b6105bf565b005b34801561009557600080fd5b506100b060048036038101906100ab9190611083565b61098c565b005b6100cc60048036038101906100c79190611295565b610bd0565b005b60008054906101000a900473ffffffffffffffffffffffffffffffffffffffff1673ffffffffffffffffffffffffffffffffffffffff166375cd51ed336040518263ffffffff1660e01b81526004016101279190611361565b602060405180830381865afa158015610144573d6000803e3d6000fd5b505050506040513d601f19601f8201168201806040525081019061016891906113b4565b6101a7576040517f08c379a000000000000000000000000000000000000000000000000000000000815260040161019e9061143e565b60405180910390fd5b60008054906101000a900473ffffffffffffffffffffffffffffffffffffffff1673ffffffffffffffffffffffffffffffffffffffff166340433653336040518263ffffffff1660e01b81526004016102009190611361565b602060405180830381865afa15801561021d573d6000803e3d6000fd5b505050506040513d601f19601f8201168201806040525081019061024191906113b4565b610280576040517f08c379a0000000000000000000000000000000000000000000000000000000008152600401610277906114aa565b60405180910390fd5b6000600160009054906101000a900473ffffffffffffffffffffffffffffffffffffffff1673ffffffffffffffffffffffffffffffffffffffff1663946a1aaa836040518263ffffffff1660e01b81526004016102dd91906114d9565b602060405180830381865afa1580156102fa573d6000803e3d6000fd5b505050506040513d601f19601f8201168201806040525081019061031e9190611509565b90506000600160009054906101000a900473ffffffffffffffffffffffffffffffffffffffff1673ffffffffffffffffffffffffffffffffffffffff16632290b191846040518263ffffffff1660e01b815260040161037d91906114d9565b602060405180830381865afa15801561039a573d6000803e3d6000fd5b505050506040513d601f19601f820116820180604052508101906103be9190611562565b90508160008054906101000a900473ffffffffffffffffffffffffffffffffffffffff1673ffffffffffffffffffffffffffffffffffffffff166393423e9c336040518263ffffffff1660e01b815260040161041a9190611361565b602060405180830381865afa158015610437573d6000803e3d6000fd5b505050506040513d601f19601f8201168201806040525081019061045b9190611509565b101561049c576040517f08c379a0000000000000000000000000000000000000000000000000000000008152600401610493906115db565b60405180910390fd5b600160009054906101000a900473ffffffffffffffffffffffffffffffffffffffff1673ffffffffffffffffffffffffffffffffffffffff16632e2f1a5b84336040518363ffffffff1660e01b81526004016104f99291906115fb565b600060405180830381600087803b15801561051357600080fd5b505af1158015610527573d6000803e3d6000fd5b5050505060008054906101000a900473ffffffffffffffffffffffffffffffffffffffff1673ffffffffffffffffffffffffffffffffffffffff1663ccb570e38333846040518463ffffffff1660e01b815260040161058893929190611624565b600060405180830381600087803b1580156105a257600080fd5b505af11580156105b6573d6000803e3d6000fd5b50505050505050565b60008054906101000a900473ffffffffffffffffffffffffffffffffffffffff1673ffffffffffffffffffffffffffffffffffffffff166375cd51ed336040518263ffffffff1660e01b81526004016106189190611361565b602060405180830381865afa158015610635573d6000803e3d6000fd5b505050506040513d601f19601f8201168201806040525081019061065991906113b4565b610698576040517f08c379a000000000000000000000000000000000000000000000000000000000815260040161068f9061143e565b60405180910390fd5b60008054906101000a900473ffffffffffffffffffffffffffffffffffffffff1673ffffffffffffffffffffffffffffffffffffffff166340433653336040518263ffffffff1660e01b81526004016106f19190611361565b602060405180830381865afa15801561070e573d6000803e3d6000fd5b505050506040513d601f19601f8201168201806040525081019061073291906113b4565b610771576040517f08c379a0000000000000000000000000000000000000000000000000000000008152600401610768906114aa565b60405180910390fd5b60008054906101000a900473ffffffffffffffffffffffffffffffffffffffff1673ffffffffffffffffffffffffffffffffffffffff16631ea30fef6040518163ffffffff1660e01b8152600401602060405180830381865afa1580156107dc573d6000803e3d6000fd5b505050506040513d601f19601f820116820180604052508101906108009190611509565b8361080b919061168a565b60008054906101000a900473ffffffffffffffffffffffffffffffffffffffff1673ffffffffffffffffffffffffffffffffffffffff166393423e9c336040518263ffffffff1660e01b81526004016108649190611361565b602060405180830381865afa158015610881573d6000803e3d6000fd5b505050506040513d601f19601f820116820180604052508101906108a59190611509565b346108b0919061168a565b10156108f1576040517f08c379a00000000000000000000000000000000000000000000000000000000081526004016108e89061170a565b60405180910390fd5b600160009054906101000a900473ffffffffffffffffffffffffffffffffffffffff1673ffffffffffffffffffffffffffffffffffffffff16632653581685338585886040518663ffffffff1660e01b8152600401610954959493929190611798565b600060405180830381600087803b15801561096e57600080fd5b505af1158015610982573d6000803e3d6000fd5b5050505050505050565b60008054906101000a900473ffffffffffffffffffffffffffffffffffffffff1673ffffffffffffffffffffffffffffffffffffffff166375cd51ed336040518263ffffffff1660e01b81526004016109e59190611361565b602060405180830381865afa158015610a02573d6000803e3d6000fd5b505050506040513d601f19601f82011682018060405250810190610a2691906113b4565b610a65576040517f08c379a0000000000000000000000000000000000000000000000000000000008152600401610a5c9061143e565b60405180910390fd5b60008054906101000a900473ffffffffffffffffffffffffffffffffffffffff1673ffffffffffffffffffffffffffffffffffffffff166340433653336040518263ffffffff1660e01b8152600401610abe9190611361565b602060405180830381865afa158015610adb573d6000803e3d6000fd5b505050506040513d601f19601f82011682018060405250810190610aff91906113b4565b610b3e576040517f08c379a0000000000000000000000000000000000000000000000000000000008152600401610b35906114aa565b60405180910390fd5b600160009054906101000a900473ffffffffffffffffffffffffffffffffffffffff1673ffffffffffffffffffffffffffffffffffffffff1663b14157ab82336040518363ffffffff1660e01b8152600401610b9b9291906115fb565b600060405180830381600087803b158015610bb557600080fd5b505af1158015610bc9573d6000803e3d6000fd5b5050505050565b60008054906101000a900473ffffffffffffffffffffffffffffffffffffffff1673ffffffffffffffffffffffffffffffffffffffff166375cd51ed336040518263ffffffff1660e01b8152600401610c299190611361565b602060405180830381865afa158015610c46573d6000803e3d6000fd5b505050506040513d601f19601f82011682018060405250810190610c6a91906113b4565b610ca9576040517f08c379a0000000000000000000000000000000000000000000000000000000008152600401610ca09061143e565b60405180910390fd5b60008054906101000a900473ffffffffffffffffffffffffffffffffffffffff1673ffffffffffffffffffffffffffffffffffffffff166340433653336040518263ffffffff1660e01b8152600401610d029190611361565b602060405180830381865afa158015610d1f573d6000803e3d6000fd5b505050506040513d601f19601f82011682018060405250810190610d4391906113b4565b610d82576040517f08c379a0000000000000000000000000000000000000000000000000000000008152600401610d79906114aa565b60405180910390fd5b60008054906101000a900473ffffffffffffffffffffffffffffffffffffffff1673ffffffffffffffffffffffffffffffffffffffff16631ea30fef6040518163ffffffff1660e01b8152600401602060405180830381865afa158015610ded573d6000803e3d6000fd5b505050506040513d601f19601f82011682018060405250810190610e119190611509565b83610e1c919061168a565b60008054906101000a900473ffffffffffffffffffffffffffffffffffffffff1673ffffffffffffffffffffffffffffffffffffffff166393423e9c336040518263ffffffff1660e01b8152600401610e759190611361565b602060405180830381865afa158015610e92573d6000803e3d6000fd5b505050506040513d601f19601f82011682018060405250810190610eb69190611509565b34610ec1919061168a565b1015610f02576040517f08c379a0000000000000000000000000000000000000000000000000000000008152600401610ef99061170a565b60405180910390fd5b600160009054906101000a900473ffffffffffffffffffffffffffffffffffffffff1673ffffffffffffffffffffffffffffffffffffffff16633d0fd023338484876040518563ffffffff1660e01b8152600401610f6394939291906117f9565b6020604051808303816000875af1158015610f82573d6000803e3d6000fd5b505050506040513d601f19601f82011682018060405250810190610fa69190611509565b5060008054906101000a900473ffffffffffffffffffffffffffffffffffffffff1673ffffffffffffffffffffffffffffffffffffffff16632b8bbbe834336040518363ffffffff1660e01b81526004016110029291906115fb565b600060405180830381600087803b15801561101c57600080fd5b505af1158015611030573d6000803e3d6000fd5b50505050505050565b6000604051905090565b600080fd5b600080fd5b6000819050919050565b6110608161104d565b811461106b57600080fd5b50565b60008135905061107d81611057565b92915050565b60006020828403121561109957611098611043565b5b60006110a78482850161106e565b91505092915050565b600080fd5b600080fd5b6000601f19601f8301169050919050565b7f4e487b7100000000000000000000000000000000000000000000000000000000600052604160045260246000fd5b611103826110ba565b810181811067ffffffffffffffff82111715611122576111216110cb565b5b80604052505050565b6000611135611039565b905061114182826110fa565b919050565b600067ffffffffffffffff821115611161576111606110cb565b5b61116a826110ba565b9050602081019050919050565b82818337600083830152505050565b600061119961119484611146565b61112b565b9050828152602081018484840111156111b5576111b46110b5565b5b6111c0848285611177565b509392505050565b600082601f8301126111dd576111dc6110b0565b5b81356111ed848260208601611186565b91505092915050565b600080600080608085870312156112105761120f611043565b5b600061121e8782880161106e565b945050602061122f8782880161106e565b935050604085013567ffffffffffffffff8111156112505761124f611048565b5b61125c878288016111c8565b925050606085013567ffffffffffffffff81111561127d5761127c611048565b5b611289878288016111c8565b91505092959194509250565b6000806000606084860312156112ae576112ad611043565b5b60006112bc8682870161106e565b935050602084013567ffffffffffffffff8111156112dd576112dc611048565b5b6112e9868287016111c8565b925050604084013567ffffffffffffffff81111561130a57611309611048565b5b611316868287016111c8565b9150509250925092565b600073ffffffffffffffffffffffffffffffffffffffff82169050919050565b600061134b82611320565b9050919050565b61135b81611340565b82525050565b60006020820190506113766000830184611352565b92915050565b60008115159050919050565b6113918161137c565b811461139c57600080fd5b50565b6000815190506113ae81611388565b92915050565b6000602082840312156113ca576113c9611043565b5b60006113d88482850161139f565b91505092915050565b600082825260208201905092915050565b7f4163636f756e7420646f6573206e6f7420657869737400000000000000000000600082015250565b60006114286016836113e1565b9150611433826113f2565b602082019050919050565b600060208201905081810360008301526114578161141b565b9050919050565b7f4d696e696d756d206465706f736974206e6f74206d6574000000000000000000600082015250565b60006114946017836113e1565b915061149f8261145e565b602082019050919050565b600060208201905081810360008301526114c381611487565b9050919050565b6114d38161104d565b82525050565b60006020820190506114ee60008301846114ca565b92915050565b60008151905061150381611057565b92915050565b60006020828403121561151f5761151e611043565b5b600061152d848285016114f4565b91505092915050565b61153f81611340565b811461154a57600080fd5b50565b60008151905061155c81611536565b92915050565b60006020828403121561157857611577611043565b5b60006115868482850161154d565b91505092915050565b7f496e73756666696369656e742076616c75650000000000000000000000000000600082015250565b60006115c56012836113e1565b91506115d08261158f565b602082019050919050565b600060208201905081810360008301526115f4816115b8565b9050919050565b600060408201905061161060008301856114ca565b61161d6020830184611352565b9392505050565b600060608201905061163960008301866114ca565b6116466020830185611352565b6116536040830184611352565b949350505050565b7f4e487b7100000000000000000000000000000000000000000000000000000000600052601160045260246000fd5b60006116958261104d565b91506116a08361104d565b92508282019050808211156116b8576116b761165b565b5b92915050565b7f496e73756666696369656e742076616c75652073656e74000000000000000000600082015250565b60006116f46017836113e1565b91506116ff826116be565b602082019050919050565b60006020820190508181036000830152611723816116e7565b9050919050565b600081519050919050565b60005b83811015611753578082015181840152602081019050611738565b60008484015250505050565b600061176a8261172a565b61177481856113e1565b9350611784818560208601611735565b61178d816110ba565b840191505092915050565b600060a0820190506117ad60008301886114ca565b6117ba6020830187611352565b81810360408301526117cc818661175f565b905081810360608301526117e0818561175f565b90506117ef60808301846114ca565b9695505050505050565b600060808201905061180e6000830187611352565b8181036020830152611820818661175f565b90508181036040830152611834818561175f565b905061184360608301846114ca565b9594505050505056fea2646970667358221220fd760f7f00a8d019ea6f8c4e261b4493c9070e464f5e8320070e2768957d1ddf64736f6c63430008110033",
  "immutableReferences": {},
  "source": "// SPDX-License-Identifier: MIT\r\npragma solidity >=0.4.22 <0.9.0;\r\n\r\nimport \"./interfaces/RideHailingAccountManagement.sol\";\r\nimport \"./interfaces/RideHailingPassenger.sol\";\r\nimport \"./interfaces/RideHailingDriver.sol\";\r\nimport \"./data_storages/RideHailingAccountsDataStorage.sol\";\r\nimport \"./data_storages/RideHailingDisputesDataStorage.sol\";\r\nimport \"./data_storages/RideHailingRidesDataStorage.sol\";\r\nimport \"./data_storages/RideHailingVehiclesDataStorage.sol\";\r\n\r\ncontract RideHailingApp {\r\n    // interfaces\r\n    RideHailingAccountManagement public accountsContract;\r\n    RideHailingPassenger public passengerContract;\r\n    RideHailingDriver public driverContract;\r\n    /* TODO\r\n        RideHailingDisputeResolution disputeResolutionContract\r\n    */\r\n\r\n    // data\r\n    RideHailingAccountsDataStorage private accountsDataStorage;\r\n    RideHailingDisputesDataStorage private disputesDataStorage;\r\n    RideHailingRidesDataStorage private ridesDataStorage;\r\n    RideHailingVehiclesDataStorage private vehiclesDataStorage;\r\n\r\n    constructor() {\r\n        // initialise data storages\r\n        accountsDataStorage = new RideHailingAccountsDataStorage();\r\n        disputesDataStorage = new RideHailingDisputesDataStorage();\r\n        ridesDataStorage = new RideHailingRidesDataStorage();\r\n        vehiclesDataStorage = new RideHailingVehiclesDataStorage();\r\n        // initialise interface contracts\r\n        accountsContract = new RideHailingAccountManagement(\r\n            accountsDataStorage\r\n        );\r\n        passengerContract = new RideHailingPassenger(\r\n            accountsDataStorage,\r\n            ridesDataStorage\r\n        );\r\n        // driverContract = new RideHailingDriver(\r\n        //     accountsDataStorage,\r\n        //     ridesDataStorage,\r\n        //     vehiclesDataStorage\r\n        // );\r\n\r\n        address[] memory internalAddresses = new address[](4);\r\n        internalAddresses[0] = address(this);\r\n        internalAddresses[1] = address(accountsContract);\r\n        internalAddresses[2] = address(passengerContract);\r\n        // internalAddresses[3] = address(driverContract);\r\n        accountsDataStorage.setInternalContractAddresses(internalAddresses);\r\n        disputesDataStorage.setInternalContractAddresses(internalAddresses);\r\n        ridesDataStorage.setInternalContractAddresses(internalAddresses);\r\n        vehiclesDataStorage.setInternalContractAddresses(internalAddresses);\r\n    }\r\n}\r\n",
  "sourcePath": "D:\\ride_hailing\\Ride-Hailing-Blockchain-App\\contracts\\RideHailingApp.sol",
  "compiler": {
    "name": "solc",
    "version": "0.8.17+commit.8df45f5f.Emscripten.clang"
  },
  "schemaVersion": "3.4.11",
  "updatedAt": "2023-03-22T07:25:11.820Z",
  "devdoc": {
    "kind": "dev",
    "methods": {},
    "version": 1
  },
  "userdoc": {
    "kind": "user",
    "methods": {},
    "version": 1
  }
}