{
  "contractName": "RideHailingAccounts",
  "abi": [
    {
      "inputs": [],
      "stateMutability": "nonpayable",
      "type": "constructor"
    },
    {
      "inputs": [],
      "name": "MIN_DEPOSIT_AMOUNT",
      "outputs": [
        {
          "internalType": "uint256",
          "name": "",
          "type": "uint256"
        }
      ],
      "stateMutability": "view",
      "type": "function"
    },
    {
      "inputs": [],
      "name": "createAccount",
      "outputs": [],
      "stateMutability": "payable",
      "type": "function"
    },
    {
      "inputs": [
        {
          "internalType": "address",
          "name": "accountAddress",
          "type": "address"
        }
      ],
      "name": "accountExists",
      "outputs": [
        {
          "internalType": "bool",
          "name": "",
          "type": "bool"
        }
      ],
      "stateMutability": "view",
      "type": "function"
    }
  ],
  "bytecode": "0x608060405234801561001057600080fd5b506103f2806100206000396000f3fe6080604052600436106100345760003560e01c80631ea30fef1461003957806375cd51ed146100645780639dca362f146100a1575b600080fd5b34801561004557600080fd5b5061004e6100ab565b60405161005b91906101f2565b60405180910390f35b34801561007057600080fd5b5061008b60048036038101906100869190610270565b6100b6565b60405161009891906102b8565b60405180910390f35b6100a9610101565b005b66470de4df82000081565b6000806000808473ffffffffffffffffffffffffffffffffffffffff1673ffffffffffffffffffffffffffffffffffffffff1681526020019081526020016000205414159050919050565b61010a336100b6565b1561014a576040517f08c379a000000000000000000000000000000000000000000000000000000000815260040161014190610330565b60405180910390fd5b66470de4df820000341015610194576040517f08c379a000000000000000000000000000000000000000000000000000000000815260040161018b9061039c565b60405180910390fd5b346000803373ffffffffffffffffffffffffffffffffffffffff1673ffffffffffffffffffffffffffffffffffffffff16815260200190815260200160002081905550565b6000819050919050565b6101ec816101d9565b82525050565b600060208201905061020760008301846101e3565b92915050565b600080fd5b600073ffffffffffffffffffffffffffffffffffffffff82169050919050565b600061023d82610212565b9050919050565b61024d81610232565b811461025857600080fd5b50565b60008135905061026a81610244565b92915050565b6000602082840312156102865761028561020d565b5b60006102948482850161025b565b91505092915050565b60008115159050919050565b6102b28161029d565b82525050565b60006020820190506102cd60008301846102a9565b92915050565b600082825260208201905092915050565b7f4163636f756e7420616c72656164792065786973747300000000000000000000600082015250565b600061031a6016836102d3565b9150610325826102e4565b602082019050919050565b600060208201905081810360008301526103498161030d565b9050919050565b7f4d696e696d756d206465706f73697420616d6f756e74206e6f74206d65740000600082015250565b6000610386601e836102d3565b915061039182610350565b602082019050919050565b600060208201905081810360008301526103b581610379565b905091905056fea26469706673582212207fcdf0ebaca1a726bef58ab21196b56c9e39fb7caf30043bffc77642d828137b64736f6c63430008110033",
  "immutableReferences": {},
  "source": "// SPDX-License-Identifier: MIT\npragma solidity >=0.4.22 <0.9.0;\n\ncontract RideHailingAccounts {\n    uint public constant MIN_DEPOSIT_AMOUNT = 20000000000000000; // about 50 SGD\n\n    mapping(address => uint256) accountBalances;\n\n    constructor() {\n    }\n\n    function createAccount() public payable {\n        require(!accountExists(msg.sender), \"Account already exists\");\n        require(msg.value >= MIN_DEPOSIT_AMOUNT, \"Minimum deposit amount not met\");\n        accountBalances[msg.sender] = msg.value;\n    }\n\n    function accountExists(address accountAddress) public view returns (bool) {\n        return accountBalances[accountAddress] != 0;\n    }\n}\n",
  "sourcePath": "/Users/sunyitao/Documents/School/Semesters/Y4S2/IS4302/Ride-Hailing-Blockchain-App/contracts/RideHailingAccounts.sol",
  "compiler": {
    "name": "solc",
    "version": "0.8.17+commit.8df45f5f.Emscripten.clang"
  },
  "schemaVersion": "3.4.11",
  "updatedAt": "2023-03-18T12:55:16.207Z",
  "devdoc": {
    "kind": "dev",
    "methods": {},
    "version": 1
  },
  "userdoc": {
    "kind": "user",
    "methods": {},
    "version": 1
  }
}